:030000000214C423
:0C14C400787FE4F6D8FD75812102150B3D
:100AF9003F065B4F666D7D077F6F40000033003313
:100B0900003200320031003100300030002F002F58
:100B1900002E002E002D002D002C002C002B002B68
:100B2900002A002A00290029002900280028002776
:100B39000027002600260026002500250024002481
:100B4900002400230023002200220022002100218A
:100B5900002000200020001F001F001F001E001E93
:100B6900001D001D001D001C001C001C001B001B9B
:100B7900001B001A001A001A0019001900180018A1
:100B890000180017001700170016001600160015A8
:100B990000150015001400140014001300130013AD
:100BA90000120012001200110011001000100010B4
:100BB900000F000F000F000E000E000E000D000DBB
:100BC900000D000C000C000C000B000B000B000AC0
:100BD900000A0009000900090008000800080007C8
:100BE900000700070006000600050005003600049E
:100BF90000030003000300020002000100010001DC
:100C090000000000FFFFFFFFFFFFFFFEFFFEFFFDEB
:100C1900FFFDFFFCFFFCFFFBFFFBFFFAFFFAFFF9FB
:100C2900FFF9FFF8FFF8FFF7FFF7FFF6FFF6FFF50B
:100C3900FFF5FFF4FFF3FFF3FFF2FFF2FFF1FFF01F
:040C4900FFF0FFEFCA
:100FDE004100DE004100E2004100E1004100EA0074
:100FEE004100E9004100EB0041002A0041002B00C6
:100FFE0041002C0042012C00004200B40000C10749
:10100E005E01330000000000000000000000000040
:10101E0000000000000000000000000000000000C2
:10102E000041002E00603C00F000000000000000B7
:10103E0000000000000000000000000000000000A2
:10104E000000000000000000000000000000000092
:10105E000000000000000000000000000000000082
:10106E00000000000041009200C188C105C10A4184
:10107E0000EC0041000B384200C200084100030A98
:10108E004100020F4100B304410029014100B900A3
:10109E00C10BC100C106C109C10141001F004100C1
:1010AE000800410020004100C7004100000041003F
:1010BE009300410001014200C500004201310000D1
:0F10CE004200BB00004200BE00004200C0000014
:0E1DF300900094EFF0A3EDF090009FEFF0222F
:10002E00900096EFF0A3EDF0A3EBF0900154E0906A
:10003E000099F0900155E090009AF0900156E090F2
:10004E00009BF0900157E090009CF0900158E090DA
:04005E00009DF022EF
:10000E00AE05EFFD3395E0FC74962DF58274003C41
:05001E00F583EEF02265
:101D0900EFFB3395E0FA74962BF58274003AF5836C
:101D1900747FF074A02BF58274003AF583EDF022FC
:070003009000A87401F02237
:061E5100E49000A8F0225D
:071E4A009000A97401F022D1
:061E5700E49000A9F02256
:061E5D0090009EEFF02250
:10129F00900095E0FF90009FE0FED3EF6480F8EEA2
:1012AF0064809850739000A9E06066E4F580C2A353
:1012BF0090009FE0FE540FFDE5A054F04DF5A0EE19
:1012CF00FD3395E0FC74962DF58274003CF583E0B8
:1012DF00FB3395E0FAEB647F4A700E74A02DF58214
:1012EF0074003CF583E0FE802690009FE0FD33956F
:1012FF00E0FC74962DF58274003CF583E0FD339588
:10130F00E0FC74F92DF582740A3CF583E493FE8EAC
:10131F008090009FE004F022EF3395E0FEEF240170
:10132F00FFE43EFE90009FE0FD3395E0FCEFB50536
:10133F001DEEB504199000A8E0600BE4F580D2A370
:0F134F0090009EE0F580900094E090009FF022C7
:101DA000EF3395E0FE74042FF58274003EF583E472
:021DB000F0221F
:101AA800E49000C8F09000C8E0FFFD3395E0FCC367
:101AB800ED9414EC648094805019EF3395E0FE7433
:101AC800CA2FF58274003EF583E4F09000C8E00464
:0B1AD800F080D2E49000C8F0A3F022E0
:101A6B00EFFD3395E0FC74042DF58274003CF58397
:101A7B007401F0EF24FE60111460182402701DE451
:101A8B009000DEF09000E2F022E49000E1F0900094
:0D1A9B00EAF022E49000E9F09000EBF02268
:1006D9009000C9E0FF3395E0FEEF2401FFE43EFE00
:1006E9007C007D141201C49000C8E06D70030208FB
:1006F9003E9000DEE0FF3395E0FEEF641E4E705D34
:100709009000E2E0FF3395E0FEC3EF9414EE6480BD
:100719009480403A90002AE0640170199000C9E081
:10072900FF04F0EF3395E0FE74CA2FF58274003EA2
:10073900F5837401F09000C9E0FF75F01412015CB3
:10074900AFF09000C9EFF0E490002AF08006900025
:100759002A7401F0E49000DEF09000E2F09000E1EC
:10076900E0FF3395E0FEEF641E4E705D9000EAE015
:10077900FF3395E0FEC3EF9414EE64809480403A11
:1007890090002BE0640170199000C9E0FF04F0EFBC
:100799003395E0FE74CA2FF58274003EF583740226
:1007A900F09000C9E0FF75F01412015CAFF0900001
:1007B900C9EFF0E490002BF0800690002B7401F053
:1007C900E49000E1F09000EAF09000E9E0FF339551
:1007D900E0FEEF641E4E705D9000EBE0FF3395E0A4
:1007E900FEC3EF9414EE64809480403A90002CE0AC
:1007F900640170199000C9E0FF04F0EF3395E0FE41
:1008090074CA2FF58274003EF5837403F09000C911
:10081900E0FF75F01412015CAFF09000C9EFF0E44D
:1008290090002CF0800690002C7401F0E49000E90F
:06083900F09000EBF0223C
:1018C000900004E07008A3E07004A3E06042900080
:1018D00005E0600F9000DEE004F020B2069000E228
:1018E000E004F0900006E0600F9000E1E004F020DA
:1018F000B3069000EAE004F0900007E0600F90006B
:10190000E9E004F02097069000EBE004F01206D91D
:0119100022B4
:1019E7009000C9E0FF9000C8E0FE6F6031EEFF3362
:1019F70095E0FE74CA2FF58274003EF583E0FF90F0
:101A070000BAF09000C8E004F0E0FE75F01412018F
:101A17005CAEF09000C8EEF0EF3395E0FE22E4FEF6
:021A2700FF229C
:101C2900EFFD3395E0FC74572DF58274003CF58384
:101C3900E0701374572DF58274003CF5837401F03C
:071C4900900091E004F0227D
:101C0100EFFD3395E0FC74572DF58274003CF583AC
:101C1100E06401701274572DF58274003CF583E481
:081C2100F0900091E014F022A4
:061E630053BC6FC2AD226A
:0F1DD500759D1FE4F5BDF5BE75BC8B759720227B
:0F1DE400759D1FE4F5BDF5BE75BC8C759720226B
:101B510090003F74FFF0A3741DF0A374E4F0A3742C
:101B6100FFF0A3741DF0A374D5F090008F7402F000
:101B7100900091F090005714F0A3F0E4900090F0E1
:011B81002241
:1010DE00C2AD900090E025E025E0246FF582E43467
:1010EE0000F583C083C082E0F8A3E0F9A3E0FAA381
:1010FE00E0FBAFBDEFFEADBE7C00E42DFFEC3EFE8F
:10110E00E4FDEB2FFFEA3EFEED39FDEC38FCD0821C
:10111E00D0831202F2900090E0FF25E0245FF5826A
:10112E00E43400F583E475F0011201FAEF25E024B2
:10113E005FF582E43400F583E0FEA3E0648870037B
:10114E00EE64137063900090E025E025E0246FF5C7
:10115E0082E43400F583E0FCA3E0FDA3E0FEA3E00F
:10116E00FFE47B887A13F9F812024C900090E0FDB0
:10117E0025E0242FF582E43400F583EEF0A3EFF0A2
:10118E00ED25E025E0246FF582E43400F5831202AC
:10119E00FE00000000900090E025E0245FF582E460
:1011AE003400F583E4F0A3F0D2AD53BCEF43BC089A
:0111BE00220E
:10180900900090E004F0E0FF90008FE0FEEF8EF092
:1018190084A3E5F0F0A3E07003021E63900090E05A
:10182900FF2457F582E43400F583E07017900090A7
:10183900E004F0E0FE90008FE0FDEE8DF084A3E57A
:10184900F0F080D8EF75F003A4243FF582E434006A
:10185900F583A3E0FAA3E0F912032FD2AFD2AD22A8
:03002B00021AE3D3
:101AE300C0E0C0F0C083C082C0D075D000C000C0C9
:101AF30001C002C003C004C005C006C0071210DE47
:101B0300D007D006D005D004D003D002D001D00036
:0B1B1300D0D0D082D083D0F0D0E032E0
:061BAD00C296C295D2961B
:101BB300C2950000E4FEEEC3940874809480501331
:101BC300EF1392CC0000D2950000C295EFC313FF30
:031BD3000E80E39E
:011BD60022EC
:101C9E000000E4FEEEC39408748094805015EFC3E8
:101CAE0013FF30CC034480FFD2950000C295000094
:031CBE000E80E1B4
:011CC1002200
:0A1E0E00121BAD121C9ED295C29665
:011E180022A7
:0D1E0100121BADAF05121BB3D295C2962285
:101911007F81121E0EEF5470C4540F75F00AA4FE9D
:10192100EF540F2E900151F07F83121E0EEF547071
:10193100C4540F75F00AA4FEEF540F2EA3F07F8557
:10194100121E0EEF5470C4540F75F00AA4FEEF542A
:0A1951000F2EA3F07B017A017951FB
:01195B002269
:101D2900E4FD7F8E121E017F81121E0EEF547F90FB
:101D390000BDF0FD7F80121E017D807F8E021E0195
:051E6900121E6ED2CD37
:011E6E002251
:0A1E1900D2CD121E6ED2C0021E6E62
:0A1E2300D2C0121E69C2C0021E6E7A
:0A1E2D00C2C0121E69D2C0021E6E70
:0B1C5000121C77121C5BAF05121C7702
:101C5B00E4FFD2CD121E6E30C00DEFC394FF748023
:0C1C6B00948050030F80F0C2CD021E6E6A
:101C7700E4FEEEC39408748094805011EF25E0FFD2
:101C8700C2CD121E6E92C0121E690E80E5C2CD1221
:071C97001E6ED2C0021E6E9A
:101B1E00C2CD121E6ED2C0121E6EE4FEEEC394082B
:101B2E0074809480501AD2CD121E6EEF25E0FDA265
:101B3E00C0E4334DFF121E6EC2CD121E6E0E80DC3F
:031B4E00021E6E06
:101D6400AC07121E237FA0121C77121C5BAF041257
:051D74001C50021E2DB1
:021D4900AD07E4
:101D4B00121E237FA0121C50121E237FA1121C7780
:091D5B00121C5B121B1E021E2D5E
:03002600D20722DC
:031E6F00C2072285
:10195C00C3EF94F4EE64809481400BD3EF94D0EEFB
:10196C006480948740037F00229000E4EEF0A3EFA4
:10197C00F0A3EDF0E49000B4F0A3F090012CF0A3F0
:10198C00F0AC06AD077E077FD01201C49000E7EEE5
:07199C00F0A3EFF07F012230
:10186900200703C2B4229000E6E0FF7005C2B4C2AB
:1018790007229000B4E475F0011201FAADF0FCBC46
:101889000714BDD011EFF4600D9000E6E014F0E408
:101899009000B4F0A3F090012CE475F0011201FA64
:1018A900FE9000E7E0B5060EA3E0B5F009E490016B
:0718B9002CF0A3F0B2B422F1
:101DB20075D6FA75D79A438E1043AF04D2AF538EBD
:021DC200EF220E
:03006300021CC2BA
:101CC200C0E0C083C082538EEF90002EE09000B837
:101CD200F090002EE4F0D20A300802C208D082D07E
:041CE20083D0E03299
:1017A200900151EEF0A3EFF0439850758E8043986C
:1017B20050900151E0FEA3E0FBAA06E4F9F8FF7E97
:1017C200307D2AFC1219A3EFF404F58B900151E04D
:1017D200FEA3E0FBAA06E4F9F8FF7E307D2AFC12A4
:1017E20019A3C3E49FFFE49EFE74019DFDE49CFCEB
:1017F20078081202DE8F8D438E40C298C299D28E33
:07180200D2ACD2AFD2BC2230
:0300230002155073
:10155000C0E0C083C082C0D075D000C007309825DD
:10156000C29830082090002EE0FF04F074332FF56D
:1015700082E43401F583E599F0538EEF75D6FA7560
:10158000D79A438E10309939C2992008349000C4FC
:10159000E0FF900092E0B50714D208E4F09000EC70
:1015A000F0C2059000AAF0A37408F0801490009295
:1015B000E0FF04F074F02FF582E43400F583E0F5E9
:0C15C00099D007D0D0D082D083D0E03288
:101BD7009000ECE060232005209000AAE07002A3AB
:101BE700E07016900092E0FF04F074F02FF582E4A5
:0A1BF7003400F583E0F599D20522D1
:0A1E3700121DB27F807E250217A263
:100D9700900002120197FE9000031201977C002435
:100DA70000FFEC3E90001DF0A3EFF090000412014D
:100DB70097FE9000051201972400FFEC3E9000DF9C
:100DC700F0A3EFF09000DFE0FEA3E0FF90001EE04D
:100DD7002FFF90001DE03EFE9000B3E0FDD3EF9D96
:100DE700EE9C500A9000DFE07002A3E070079000CD
:100DF700B97402F0229000297401F0E0FF90001D01
:100E0700A3E0FEF8EF088002C333D8FC900029F076
:100E17009000B27401F09000B2E0FFD39000E0E0E0
:100E27009F9000DFE094004013900029E0FF25E049
:100E3700FEEF4EF09000B2E004F080DAE49000C4D8
:100E4700F012017EFF9000C4E0FE04F074F02EF56E
:100E570082E43400F583EFF0900001120197FF90D0
:100E670000C4E0FE04F074F02EF582E43400F5834C
:100E7700EFF09000C4E0FF04F074F02FF582E43443
:100E870000F5837401F0900029E0FF900003E05F14
:100E9700120CD79000B0EEF0A3EFF09000B0E0FC9A
:100EA700A3E0FDECFF9000C4E0FE04F074F02EF523
:100EB70082E43400F583EFF0AF059000C4E0FE0450
:0E0EC700F074F02EF582E43400F583EFF02293
:10083F00900002120197FE9000031201977C002492
:10084F0000FFEC3E90001DF0A3EFF09000041201AA
:10085F0097FE9000051201972400FFEC3EFE9000DA
:10086F00DFF0A3EFF090001EE02FFF90001DE03EA1
:10087F00FEC39000C3E09F9000C2E09E400B90002B
:10088F00DFE0FEA3E0FF4E70079000B97402F02284
:10089F00E49000C4F0900133E0FD9000C4E0FC044C
:1008AF00F074F02CF582E43400F583EDF090013410
:1008BF00E0FD9000C4E0FC04F074F02CF582E43409
:1008CF0000F583EDF0EF25E0FF9000C4E0FE04F0AB
:1008DF0074F02EF582E43400F583EFF090001DA341
:1008EF00E09000B2F09000DFE0FEA3E0FF90001E6A
:1008FF00E02FFF90001DE03EFE9000B2E0C39FE4AA
:10090F009E504CE0FD25E0240DF582E43400F58384
:10091F00E0FF9000C4E0FE04F074F02EF582E434A2
:10092F0000F583EFF0ED25E0240DF582E43400F5BA
:10093F0083A3E0FF9000C4E0FE04F074F02EF58274
:10094F00E43400F583EFF09000B2E004F0809612EB
:10095F000CEB9000B0EEF0A3EFF09000B0E0FCA332
:10096F00E0FDECFF9000C4E0FE04F074F02EF58281
:10097F00E43400F583EFF0AF059000C4E0FE04F01F
:0D098F0074F02EF582E43400F583EFF022C1
:10099C00900002120197FE9000031201977C002434
:1009AC0000FFEC3E90001DF0A3EFF090000412014C
:1009BC0097FE9000051201972400FFEC3E9000AECC
:1009CC00F0A3EFF09000B3E0FF90001DE0FCA3E07B
:1009DC00FDC39FEC94004003020AB4AF057E007483
:1009EC0001A807088005C333CE33CED8F9FF900099
:1009FC0002E0FDEF5D7003020AB49000AEE0F4700B
:100A0C0002A3E0704990001DE0FCA3E0FDFFF87428
:100A1C0001088002C333D8FCFF900003E04FF0EDD7
:100A2C004C7005D202020ABB90001DE0FEA3E0FF51
:100A3C0064014E7004D2038076EF64024E7004D2CF
:100A4C0004806CEF64034E70661200268061900087
:100A5C00AEE07002A3E0704990001DE0FCA3E0FD45
:100A6C00FFF87401088002C333D8FCF4FF90000334
:100A7C00E05FF0ED4C7004C202803490001DE0FE8B
:100A8C00A3E0FF64014E7004C2038023EF64024EA6
:100A9C007004C2048019EF64034E7013121E6F8031
:100AAC000E9000B97403F0229000B97402F0221277
:100ABC000C4D9000B0EEF0A3EFF09000B0E0FCA372
:100ACC00E0FDECFF9000C4E0FE04F074F02EF58223
:100ADC00E43400F583EFF0AF059000C4E0FE04F0C1
:0D0AEC0074F02EF582E43400F583EFF02263
:100ED500900002120197FE9000031201977C0024F6
:100EE50000FFEC3EFE90001DF0A3EFF0D39000C391
:100EF500E09F9000C2E09E5003020F9990001DA351
:100F0500E0FF7E007401A807088005C333CE33CE09
:100F1500D8F9FF90000BE0FDEF5D6078900137E0B8
:100F2500FEA3E07C002400FDEC3EFC90001EE025C5
:100F3500E0FF90001DE033FE740D2FF58274003E36
:100F4500F583ECF0A3EDF090001DE0FEA3E0FF6457
:100F5500034E7011900013E0FDA3E09000BBCDF0AF
:100F6500A3EDF08036EF64044E700C900015E0FFA1
:100F7500A3E09000BE801690001DE07004A3E0641D
:100F8500057018900017E0FFA3E09000C0CFF0A314
:100F9500EFF080079000B97402F022120C4D90001A
:100FA500B0EEF0A3EFF09000B0E0FCA3E0FDECFFA5
:100FB5009000C4E0FE04F074F02EF582E43400F5F0
:100FC50083EFF0AF059000C4E0FE04F074F02EF559
:090FD50082E43400F583EFF02200
:10054100900002120197FE9000031201977C002493
:1005510000FFEC3E90001DF0A3EFF09000041201AB
:1005610097FE9000051201972400FFEC3E9000DFFA
:10057100F0A3EFF0900006120197FE900007120120
:10058100972400FFEC3E9000AEF0A3EFF09000B393
:10059100E0FF90001DE0FCA3E0FDC39FEC94004050
:1005A10003020694900029EDF090001DE0FEA3E007
:1005B100FF9000DFE0FCA3E02FFFEC3EFE9000295E
:1005C100E0C39FE49E400302069BE0FF7E007401AE
:1005D100A807088005C333CE33CED8F9FF900002B7
:1005E100E0FDEF5D7003020694900029E0FF7E00BC
:1005F1007401A807088005C333CE33CED8F9FF9024
:1006010000AEE0FCA3E0FDEC5EFEED5F4E603E90CF
:100611000029E0FFF87401088002C333D8FCFE9082
:100621000003E04EF07E00EF7004D202805CEF64C4
:10063100014E7004D2038052EF64024E7004D20462
:100641008048EF64034E7042120026803D900029DD
:10065100E0FFF87401088002C333D8FCF4FE900077
:1006610003E05EF07E00EF7004C202801DEF6401C2
:100671004E7004C2038013EF64024E7004C2048002
:1006810009EF64034E7003121E6F900029E004F01D
:100691000205AA9000B97402F022120C4D9000B02C
:1006A100EEF0A3EFF09000B0E0FCA3E0FDECFF90D2
:1006B10000C4E0FE04F074F02EF582E43400F5830A
:1006C100EFF0AF059000C4E0FE04F074F02EF58267
:0806D100E43400F583EFF02290
:10038A00900002120197FE9000031201977C00244C
:10039A0000FFEC3E90001DF0A3EFF0900004120164
:1003AA0097FE9000051201972400FFEC3EFE900094
:1003BA00DFF0A3EFF090001EE02FFF90001DE03E5B
:1003CA00FED39000C3E09F9000C2E09E5003020457
:1003DA00BE90001DA3E0900029F0E49000AEF0A3C7
:1003EA00F090001DE0FEA3E0FF9000E0E02FFF90F8
:1003FA0000DFE03EFE900029E0FDC39FE49E40033B
:10040A000204C57E007401A805088005C333CE33F3
:10041A00CED8F9FF90000BE0FDEF5D70030204BE39
:10042A009000AEE0FCA3E0FD243AF58274013CF5AD
:10043A0083E0FE743B2DF58274013CF583E07C0079
:10044A002400FFEC3EFE900029E0FD25E0240DF596
:10045A0082E43400F583EEF0A3EFF0EDFF7E006452
:10046A00037011900013E0FDA3E09000BBCDF0A350
:10047A00EDF08029EF64044E700C900015E0FFA3A4
:10048A00E09000BE8012900029E06405700F900091
:10049A0017E0FFA3E09000C0CFF0A3EFF09000AF09
:1004AA00E02402F09000AEE03400F0900029E0046D
:1004BA00F00203EB9000B97402F0229000C47406B3
:1004CA00F0900133E09000F0F0900134E09000F1F8
:1004DA00F0900135E09000F2F0900136E09000F3E0
:1004EA00F0900137E09000F4F0900138E09000F5C8
:1004FA00F07B017A0079F07D06120CF69000B0EEDE
:10050A00F0A3EFF09000B0E0FCA3E0FDECFF900058
:10051A00C4E0FE04F074F02EF582E43400F583EFB3
:10052A00F0AF059000C4E0FE04F074F02EF582E40A
:07053A003400F583EFF0220D
:100C4D00E49000C4F012017EFF9000C4E0FE04F0B9
:100C5D0074F02EF582E43400F583EFF0900001126C
:100C6D000197FF9000C4E0FE04F074F02EF582E4CD
:100C7D003400F583EFF0900002120197FF9000C44D
:100C8D00E0FE04F074F02EF582E43400F583EFF00D
:100C9D00900003120197FF9000C4E0FE04F074F081
:100CAD002EF582E43400F583EFF0900004120197E5
:100CBD00FF9000C4E0FE04F074F02EF582E43400E1
:100CCD00F583EFF0900005120197FF9000C4E0FE50
:100CDD0004F074F02EF582E43400F583EFF07A0021
:090CED0079F09000C47B01E0FDE8
:100CF600900154EDF074FF9000B6F0A3F0E490017B
:100D06002FF0900154E0FF90012FE0C39F506D1229
:100D1600017EFF9000B6E0F0A3E06FF0E4900130B2
:100D2600F0900130E0C3940874809480503F9000A6
:100D3600B6E0FCA3E0FD5401FF900009E4F0A3EF48
:100D4600F0ECC313FFED139000B6CFF0A3EFF090D5
:100D56000009E07002A3E0600C9000B6E064A0F029
:100D6600A3E06401F0900130E004F080B47401293E
:100D7600F9E43AFA90012FE004F080869000B6E09C
:100D8600FCA3E0FAECFFEAFE9000ACEEF0A3EFF075
:010D9600223A
:1011BF00900151EBF0A3EAF0A3E9F0200A03021229
:1011CF009E900151E0FBA3E0FAA3E0F912017E64C7
:1011DF000160099000B97404F002128E7A0179331C
:1011EF009000B8120CF2EF4E60099000B97405F040
:1011FF0002128EE49000B9F0900151E0FBA3E0FAE7
:10120F00A3E0F990000112019724FE6017146019F2
:10121F0014601614602314603024F7603C14604986
:10122F00240F7055120D978056900151E0FBA3E0EB
:10123F00FAA3E0F912083F8046900151E0FBA3E0CA
:10124F00FAA3E0F912099C8036900151E0FBA3E06C
:10125F00FAA3E0F9120ED58026900151E0FBA3E02E
:10126F00FAA3E0F91205418016900151E0FBA3E0CB
:10127F00FAA3E0F912038A80069000B97401F0C254
:10128F000A9000EC7401F09000B9E0FF12164722AB
:10164700AD07EF607224FB600304700ED208E490CC
:101657000092F09000ECF0C205229000F07401F0C7
:10166700900134E044809000F1F0A3EDF09000C4C5
:101677007403F07B017A0079F0FD120CF69000B04C
:10168700EEF0A3EFF09000B0E0FCA3E0FDECFF90DC
:1016970000C4E0FE04F074F02EF582E43400F58314
:1016A700EFF0AF059000C4E0FE04F074F02EF58271
:0816B700E43400F583EFF0229A
:10135E00900131E0FFA3E090000FCFF0A3EFF090EB
:10136E0000C5E0FFA3E0900011CFF0A3EFF09000D6
:10137E00BBE0FFA3E0900013CFF0A3EFF09000BE10
:10138E00E0FFA3E0900015CFF0A3EFF09000C0E0D7
:10139E00FFA3E0900017CFF0A3EFF09000E3E0FF83
:1013AE00900019E4F0A3EFF090002DE0FF90001BE9
:1013BE00E4F0A3EFF0900003E03002054401FF805B
:1013CE000354FEFF900003EFF0300306E04402FFEB
:1013DE008007900003E054FDFF900003EFF030040F
:1013EE0006E04404FF8007900003E054FBFF9000EA
:1013FE0003EFF0300706E04408FF8007900003E09B
:09140E0054F7FF900003EFF022F7
:101D7900E4F5937594FFF595759608F5B2F5B1F507
:041D890092F591221C
:101DC400538E7F5389F0758CFE758A0BD28CD2A901
:011DD40022EC
:03000B00021B8253
:101B8200C0E0C083C082C0D0D20B9000AAE0700235
:101B9200A3E0600E9000ABE024FFF09000AAE034D6
:0B1BA200FFF0D0D0D082D083D0E03222
:101D8D00C20B900008E004F0E064027003D200F092
:031D9D00021869C0
:101A290090012EE024FE6018146026240270329082
:101A390000BCE004F070069000BBE004F0B20222A2
:101A49009000BFE004F070069000BEE004F0B2031D
:101A5900229000C1E004F070069000C0E004F0B2EA
:021A6900042255
:10173500C200900020E004F0E0640A7003D206F0D5
:1017450012135E12129F1218C07B017A01793312AF
:1017550011BF1219E790012EEFF0FB7A00640170BA
:10176500099000EFE0FD7F02800DEB64024A700CEA
:101775009000EDE0FD7F03121D64801E90012EE0B8
:10178500640370167F02121D499000E3EFF0007F9D
:0D17950003121D4990002DEFF000021A29EB
:1016BF00C2069000C7E004F0E0640A7003D209F09C
:1016CF00A203E43325E025E0FFA202E4334FFFA29B
:1016DF0004E433C454F04FFFA207E43375F040A481
:1016EF004FFF121E5D12180990002FE0FFA3E0902C
:1016FF0000C5CFF0A3EFF0900031E0FEA3E0780239
:10170F00CEC313CE13D8F925E0FFEE33FE74832F2B
:10171F00F582740A3EF583E493FF740193900131CF
:06172F00CFF0A3EFF02251
:1015CC009000EFE0FF75F00A84900021F0EF75F0C9
:1015DC000A84A3E5F0F0A3747FF09000EEE0FF75B1
:1015EC00F00A84900024F0EF75F00A84A3E5F0F083
:1015FC00A3747FF09000EDE0FF75F00A8490002753
:10160C00F0EF75F00A84AFF0A3EFF0FE900021E04C
:10161C00FFA3E0FDA3E0FBA3E0900154F0900025B4
:10162C00E0900155F0900026E0900156F0900027D4
:0B163C00E0900157F0A3EEF002002E3A
:101CE600C209900000E004F0E0640A7003F0D2013B
:101CF60012191178ED7C007D017E007F03120136FA
:031D06000215CCF7
:091E4100C201900093E004F022BC
:10141700121D79121DC4D2AF121E197D07E4FF12E7
:101427001DF31200037D407F02121D097F05121D67
:1014370009900001E0FF121E5D121E4A121AA87DD4
:10144700FF7FD07E0712195C121E6F7F01121A6B85
:101457000F121A6B0F121A6B121E37121B51E4FF71
:10146700121C290F121C29121DE47F81121E0EEF78
:1014770030E703121D29E490000DF0A3F0FF121DC1
:1014870049EF90000DF0A3E4F0007F01121D49E041
:101497002FF090000DE03400F000300B03121D8D8B
:1014A7003000031217353006061216BF121BD7304D
:0D14B7000903121CE63001E2121E4180DD27
:1014D000021417E493A3F8E493A34003F68001F207
:1014E00008DFF48029E493A3F85407240CC8C3331D
:1014F000C4540F4420C8834004F456800146F6DFEC
:10150000E4800B0102040810204080900FDEE47E8E
:10151000019360BCA3FF543F30E509541FFEE493E0
:10152000A360010ECF54C025E060A840B8E493A3A7
:10153000FAE493A3F8E493A3C8C582C8CAC583CAD2
:10154000F0A3C8C582C8CAC583CADFE9DEE780BE8A
:0110DD000012
:10006600E709F608DFFA8046E709F208DFFA803E7C
:1000760088828C83E709F0A3DFFA8032E309F60869
:10008600DFFA8078E309F208DFFA807088828C83D1
:10009600E309F0A3DFFA806489828A83E0A3F60885
:1000A600DFFA805889828A83E0A3F208DFFA804C5F
:1000B60080D280FA80C680D4806980F28033801036
:1000C60080A680EA809A80A880DA80E280CA80339F
:1000D60089828A83ECFAE493A3C8C582C8CCC58317
:1000E600CCF0A3C8C582C8CCC583CCDFE9DEE780E7
:1000F6000D89828A83E493A3F608DFF9ECFAA9F066
:10010600EDFB2289828A83ECFAE0A3C8C582C8CCBB
:10011600C583CCF0A3C8C582C8CCC583CCDFEADED4
:10012600E880DB89828A83E493A3F208DFF980CC36
:1001360088F0EF60010E4E60C388F0ED2402B4042F
:100146000050B9F582EB2402B4040050AF232345D6
:0601560082239000B67345
:10015C00C2D530F707B2D563F0FF05F030E70CB22B
:10016C00D5F4048463F0FF05F080018430D502F4EB
:02017C0004225B
:10017E00BB010689828A83E0225002E722BBFE027F
:09018E00E32289828A83E49322B2
:10019700BB010CE58229F582E5833AF583E022501D
:1001A70006E92582F8E622BBFE06E92582F8E22267
:0D01B700E58229F582E5833AF583E4932281
:1001C400C2D5EC30E709B2D5E4C39DFDE49CFCEE56
:1001D40030E715B2D5E4C39FFFE49EFE120335C396
:1001E400E49DFDE49CFC800312033530D507C3E491
:0601F4009FFFE49EFE22C5
:1001FA00C5F0F8A3E028F0C5F0F8E5821582700290
:06020A001583E038F0222C
:1002100075F008758200EF2FFFEE33FECD33CDCCA5
:1002200033CCC58233C5829BED9AEC99E582984028
:100230000CF582EE9BFEED9AFDEC99FC0FD5F0D605
:10024000E4CEFBE4CDFAE4CCF9A88222B800C1B92F
:100250000059BA002DEC8BF084CFCECDFCE5F0CB6D
:10026000F97818EF2FFFEE33FEED33FDEC33FCEBA6
:1002700033FB10D703994004EB99FB0FD8E5E4F961
:10028000FA227818EF2FFFEE33FEED33FDEC33FC4E
:10029000C933C910D7059BE99A4007EC9BFCE99A42
:1002A000F90FD8E0E4C9FAE4CCFB2275F010EF2F87
:1002B000FFEE33FEED33FDCC33CCC833C810D70787
:1002C0009BEC9AE899400AED9BFDEC9AFCE899F8C2
:0E02D0000FD5F0DAE4CDFBE4CCFAE4C8F92255
:1019A300C2D5E830E70FB2D5E4C39BFBE49AFAE46F
:1019B30099F9E498F8EC30E717B2D51219D9120265
:1019C3004CE4C39BFBE49AFAE499F9E498F88003A6
:1019D30012024C30D50DE4C39FFFE49EFEE49DFD4F
:0419E300E49CFC2262
:1002DE00E86010ECA2E713FCED13FDEE13FEEF1336
:0402EE00FFD8F02223
:0C02F200ECF0A3EDF0A3EEF0A3EFF0227F
:1002FE00A8828583F0D083D08212031512031512C3
:10030E000315120315E473E493A3C583C5F0C583E7
:10031E00C8C582C8F0A3C583C5F0C583C8C582C849
:01032E0022AC
:06032F008A838982E47359
:10033500BC000BBE0029EF8DF084FFADF022E4CCAC
:10034500F875F008EF2FFFEE33FEEC33FCEE9DEC75
:10035500984005FCEE9DFE0FD5F0E9E4CEFD22EDBB
:10036500F8F5F0EE8420D21CFEADF075F008EF2F05
:10037500FFED33FD4007985006D5F0F222C398FDF6
:050385000FD5F0EA2293
:00000001FF
