:0300000002037B7D
:0C037B00787FE4F6D8FD75817D0203C296
:0C06F9003F065B4F666D7D077F6F400081
:10048800016F00017100017000017800017700011F
:100498007900013300013400013700027B000002BB
:1004A800500000C103C105C100C102C104C101015E
:1004B8002800012A00015800012100013800012309
:1004C800010129000153000154000155FC0157188E
:0F04D800015600012200014F00017D03017A004F
:070003008F398D3A8F442272
:10068A008F3B8D3C8B3D850B3E850C3F850D408510
:06069A000E41850F422213
:07070500743B2FF8A605224A
:0D06E000743B2FF8767F74452FF8A6052295
:04071800754D0122F8
:04071C00E4F54D2291
:04072000754E0122EF
:04072400E4F54E2288
:030728008F4322DA
:10040700D3E53A6480F8E5446480985047E54E6048
:1004170040E4F580C2A3E544540FFFE5A054F04F34
:10042700F5A0743B2544F8E6FFFD3395E0FCED6449
:100437007F4C700974452544F8E6FF8012EF339529
:10044700E0FE74F92FF58274063EF583E493FF8F7F
:1004570080054422AF3AEF3395E0FEEF2401FFE435
:100467003EFEAD44ED3395E0FCEFB50513EEB50464
:100477000FE54D6008E4F580D2A3854380853944B4
:010487002252
:07070C0074242FF8E4F6222B
:10062600E4F559AF59EF3395E0FEC3EF9414EE6449
:10063600809480500A745B2FF8E4F6055980E4E450
:05064600F559F55A22F0
:10064B0074242FF87601EF24FE600D146010240241
:10065B007011E4F56FF57122E4F570F57822E4F58D
:04066B0077F5792284
:10014200AF5AEF3395E0FEEF2401FFE43EFE7C0060
:100152007D14120257ED65597003020234AF6FEF3E
:100162003395E0FEEF641E4E703AAF71EF3395E0C7
:10017200FEC3EF9414EE648094804020E533640162
:10018200700AAF5A055A745B2FF87601E55A75F07A
:100192001412023585F05AE4F5338003753301E415
:1001A200F56FF571AF70EF3395E0FEEF641E4E70A0
:1001B2003AAF78EF3395E0FEC3EF9414EE64809487
:1001C200804020E5346401700AAF5A055A745B2FEF
:1001D200F87602E55A75F01412023585F05AE4F504
:1001E200348003753401E4F570F578AF77EF339519
:1001F200E0FEEF641E4E703AAF79EF3395E0FEC336
:10020200EF9414EE648094804020E5376401700A14
:10021200AF5A055A745B2FF87603E55A75F014123B
:10022200023585F05AE4F5378003753701E4F57736
:03023200F5792239
:1005A400E5247008E5257004E5266024E525600748
:1005B400056F20B2020571E5266007057020B302BD
:1005C4000578E5276007057720970205791201422F
:0105D4002204
:1005FF00E559655A601D745B2559F8E6F5520559A2
:10060F00E55975F01412023585F059AF52EF339555
:07061F00E0FE22E4FEFF22D1
:03072B00D20322D4
:03072E00C20322E1
:10056A00C3EF9420EE64809483400BD3EF94D0EED3
:10057A006480948740037F00228E728F738D74E4A7
:10058A00F550F551F57BF57CAC06AD077E077FD0BB
:0A059A001202578E758F767F012242
:10052B00200303C2B422E5747005C2B4C2032205D2
:10053B0051E55170020550FFAE50BE070ABFD00700
:10054B001574E4F550F551057CE57C7002057BB51F
:0F055B00760CE57BB57507E4F57BF57CB2B42231
:1002E200E4F580C2A3E52264087002F5228522A00B
:1002F200E522C3954F4055E522D3957D504E057AB0
:10030200AF7A7E00EF946474809480502C742B2515
:1003120022F8E6FDFB3395E0FAEB647F4A70047D38
:10032200408012ED3395E0FC74F92DF58274063CA1
:10033200F583E493FD8D808003E4F580C3EF94C8D8
:10034200EE64809480402FE4F57A802A742B252273
:10035200F8E6FFFD3395E0FCED647F4C70047F40CE
:100362008012EF3395E0FE74F92FF58274063EF5A4
:0903720083E493FF8F8005222231
:1004E800E55475F06484F52BE55475F00A8475F0CD
:1004F8000A8485F02CE55475F00A8485F02D752E54
:100508007F752F7FE55375F06484F530E55375F0FA
:100518000A8475F00A8485F031E55375F00A8485FC
:03052800F032228C
:0C06ED00E4F5937594FFF59575960822CE
:1006A000538E7F5389F0758CFE758A0BD28CD2A93C
:0106B0002227
:03000B00020731B8
:03073100D20532BC
:1006B100C2050528E52864027004D200F528020568
:0106C1002B0D
:10066F00C200052AE52A640A7004D202F52AE5566B
:0B067F0060031202E21204070205A44F
:0F06C200C2020558E558640A7004D204F55822A4
:0F06D100C2040521E521640A7004F521D201223B
:05071300C201053822BF
:10000E001206ED1206A0D2AF7D07E4FF1200031216
:10001E000718750B7F750C7FF50DF50EF50FFBFDB3
:10002E0012068A7D407F031206E00F1206E0AF2310
:10003E00120728120720E4F538752301E523F46032
:10004E002B3005031206B130000312066F30020387
:10005E001206C230040E1206D1AF23120728E52372
:10006E0025E042233001D512071380D0E4FF12079A
:10007E00281206267F0112064B0F12064B0F120690
:10008E004B7D017FDC7E0512056A12072BE4F538E5
:10009E00752301120720AF23120728E52325E0F56B
:1000AE00233005031206B130000312066F3002032F
:1000BE001206C23004031206D130010E120713AF1E
:1000CE0023120728E52325E0F5231205FF8F29E5E6
:1000DE002960031205D5E538640870C5120724128D
:1000EE00071C7556013005031206B13000031206C7
:1000FE006F3002031206C23004031206D130010E15
:10010E00120713AF23120728E52325E0F523E55345
:10011E00C395545008E4F54F757D0280C5E553D361
:10012E0095544008754F05757D0780B6E4F54F75FB
:04013E007D0780AE0B
:1005D500EF24FD60082402700605538002055412BD
:1005E50004E8750B7F750C7F85300D85310E8532DE
:0A05F5000FAB2DAD2CAF2B02068AD0
:1003870002000EE493A3F8E493A34003F68001F27E
:1003970008DFF48029E493A3F85407240CC8C33377
:1003A700C4540F4420C8834004F456800146F6DF46
:1003B700E4800B0102040810204080900488E47E4A
:1003C700019360BCA3FF543F30E509541FFEE4933B
:1003D700A360010ECF54C025E060A840B8E493A302
:1003E700FAE493A3F8E493A3C8C582C8CAC583CA2D
:1003F700F0A3C8C582C8CAC583CADFE9DEE780BEE5
:0104E7000014
:10023500C2D530F707B2D563F0FF05F030E70CB251
:10024500D5F4048463F0FF05F080018430D502F411
:02025500042281
:10025700C2D5EC30E709B2D5E4C39DFDE49CFCEEC2
:1002670030E715B2D5E4C39FFFE49EFE12028DC3AB
:10027700E49DFDE49CFC800312028D30D507C3E4A6
:060287009FFFE49EFE2231
:10028D00BC000BBE0029EF8DF084FFADF022E4CC55
:10029D00F875F008EF2FFFEE33FEEC33FCEE9DEC1E
:1002AD00984005FCEE9DFE0FD5F0E9E4CEFD22ED64
:1002BD00F8F5F0EE8420D21CFEADF075F008EF2FAE
:1002CD00FFED33FD4007985006D5F0F222C398FD9F
:0502DD000FD5F0EA223C
:00000001FF
